:100000000C9476010C949E010C949E010C949E011C
:100010000C949E010C949E010C949E010C949E01E4
:100020000C949E010C949E010C949E010C949E01D4
:100030000C949E010C949E010C949E010C949E01C4
:100040000C94401B0C949E010C940E1B0C94E81A0B
:100050000C949E010C949E010C949E010C949E01A4
:100060000C949E010C949E010000000023002600C9
:1000700029005370656564206D6D2F6D696E004DAC
:100080006F7665205A206D6D004D6F766520592082
:100090006D6D004D6F76652058206D6D00245820E1
:1000A000616C61726D206C6F636B004772626C20D3
:1000B000636F6D6D616E647300244820486F6D65D9
:1000C000004772626C20636F6D6D616E64730043F4
:1000D0006E63206D6F6465004772626C2073657497
:1000E00074696E67004C61736572206D6F646500A2
:1000F0004772626C2073657474696E67005374652F
:1001000070706572206F6666004772626C2073655E
:100110007474696E670053746570706572206F6ED9
:10012000004772626C2073657474696E6700534493
:1001300020436172640052657475726E20746F2082
:100140007A65726F004D6F7665206D656E75005231
:1001500065736574207A65726F004D6F7665206DEA
:10016000656E75005370656564004D6F7665206D32
:10017000656E75004D6F7665205A004D6F7665206F
:100180006D656E75004D6F76652059004D6F766513
:10019000206D656E75004D6F76652058004D6F7649
:1001A00065206D656E75004772626C20636F6D6DC2
:1001B000616E6473004D61696E206D656E750047F8
:1001C00072626C2073657474696E67004D61696E4C
:1001D000206D656E750053442043617264004D616B
:1001E000696E206D656E75004D6F7665004D6169B5
:1001F0006E206D656E75002020202020202020209C
:10020000202020202020200020202020202020200E
:100210002020202020202020006F6B007C3C3E5EB0
:100220002B3D3F2F5B5D3B2C2A225C000000000031
:10023000250028002B000000000800020100000338
:10024000040700000000000000000000000024007F
:1002500027002A000102040810204080010204083F
:1002600010200102040810200404040404040404FF
:1002700002020202020203030303030345524B205E
:100280004C4344207633004772626C2076312E3125
:100290002074657374656400506C656173652077C4
:1002A0006169742E2E2E20200046696C65206973CA
:1002B00020656D70747920202000506C6561736535
:1002C00020776169742E2E2E202000250050726F39
:1002D00063657373696E672E2E005072657061726C
:1002E000696E672E2E2E00008A1BEF2311241FBE7D
:1002F000CFEFD8E0DEBFCDBF25E0A8E0B2E001C07F
:100300001D92AC32B207E1F712E0A0E0B1E0E2EFFB
:10031000F0E502C005900D92A830B107D9F711E0C1
:10032000C5E7D1E004C02197FE010E943C26C437F6
:10033000D107C9F70E94FC1B0C946C280C94000098
:100340000895DC01ED91FC910190F081E02D09947C
:10035000DB0114964D915C9115976D917C91DC01B8
:10036000ED91FC910280F381E02D0994AF92BF9250
:10037000CF92DF92EF92FF920F931F93CF93DF9371
:100380006C017B018B01040F151FEB015E01AE18A0
:10039000BF08C017D10759F06991D601ED91FC91C2
:1003A0000190F081E02DC6010995892B79F7C501EF
:1003B000DF91CF911F910F91FF90EF90DF90CF9041
:1003C000BF90AF900895FC01538D448D252F30E0F0
:1003D000842F90E0821B930B541710F0CF96089552
:1003E00001970895FC01918D828D981761F0A28D7F
:1003F000AE0FBF2FB11D5D968C91928D9F5F9F7345
:10040000928F90E008958FEF9FEF0895FC01918DFA
:10041000828D981731F0828DE80FF11D858D90E067
:1004200008958FEF9FEF0895FC01918D228D892F04
:1004300090E0805C9F4F821B91098F7399270895EC
:1004400082E294E00E94140221E0892B09F420E06A
:10045000822F089580E090E0892B29F00E942002ED
:1004600081110C9400000895FC01A48DA80FB92FF0
:10047000B11DA35ABF4F2C91848D90E001968F73CC
:100480009927848FA689B7892C93A089B1898C91EB
:10049000837080648C93938D848D981306C002883A
:1004A000F389E02D80818F7D80830895EF92FF9204
:1004B0000F931F93CF93DF93EC0181E0888F9B8D87
:1004C0008C8D98131AC0E889F989808185FF15C041
:1004D0009FB7F894EE89FF896083E889F989808164
:1004E0008370806480839FBF81E090E0DF91CF9133
:1004F0001F910F91FF90EF900895F62E0B8D10E055
:100500000F5F1F4F0F731127E02E8C8D8E110CC0C3
:100510000FB607FCFACFE889F989808185FFF5CF0E
:10052000CE010E943402F1CFEB8DEC0FFD2FF11DB7
:10053000E35AFF4FF0829FB7F8940B8FEA89FB894B
:1005400080818062CFCFCF93DF93EC01888D8823A9
:10055000B9F0AA89BB89E889F9898C9185FD03C026
:10056000808186FD0DC00FB607FCF7CF8C9185FF0B
:10057000F2CF808185FFEDCFCE010E943402E9CF1A
:10058000DF91CF910895833081F028F4813099F084
:100590008230A9F008958730A9F08830C9F08430FE
:1005A000B1F4809180008F7D03C0809180008F77AF
:1005B00080938000089584B58F7784BD089584B5B5
:1005C0008F7DFBCF8091B0008F778093B00008952E
:1005D0008091B0008F7DF9CF1F93CF93DF93282FA9
:1005E00030E0F901EA5CFD4F8491F901EC5AFD4FCE
:1005F000D491F901E859FD4FC491CC23A9F0162FED
:1006000081110E94C302EC2FF0E0EE0FFF1FE45DAA
:10061000FD4FA591B4918FB7F894EC91111108C0DA
:10062000D095DE23DC938FBFDF91CF911F9108958A
:10063000DE2BF8CFCF93DF9390E0FC01EC5AFD4F17
:10064000249188599D4FFC0184918823D1F090E03A
:10065000880F991FFC01E65BFD4FA591B491FC0149
:10066000E45DFD4FC591D49161110EC09FB7F89420
:100670008C91E22FE0958E238C932881E223E883EE
:100680009FBFDF91CF9108958FB7F894EC91E22B43
:10069000EC938FBFF6CF3FB7F894809114029091FE
:1006A0001502A0911602B091170226B5A89B05C0AD
:1006B0002F3F19F00196A11DB11D3FBFBA2FA92FE1
:1006C000982F8827BC01CD01620F711D811D911DDE
:1006D00042E0660F771F881F991F4A95D1F708954A
:1006E0008F929F92AF92BF92CF92DF92EF92FF9242
:1006F0004B015C010E944B036B017C010E944B0388
:100700006C197D098E099F09683E7340810591052A
:10071000A8F321E0821A9108A108B10888EEC80E5A
:1007200083E0D81EE11CF11C81149104A104B104E2
:1007300029F7FF90EF90DF90CF90BF90AF909F9000
:100740008F9008952FB7F894609110027091110264
:1007500080911202909113022FBF089590E080E0E3
:1007600008958FB7F894809109028FBF089561E0D2
:10077000FC0184810E94EC02809108028111109298
:10078000080208958EBD00000DB407FEFDCF8EB5A2
:1007900008958FEF0C94C2030F931F93CF93DF93B1
:1007A000EC010E94A2038B010E94C9038F3F69F0F4
:1007B0000E94A203601B710B6C177D07A8F380E0F9
:1007C000DF91CF911F910F91089581E0F9CF8CBDFA
:1007D0009DBD0895CF93DF93EC01809108028111B4
:1007E00009C081E0809308028091BF049091C00409
:1007F0000E94E70360E08C81DF91CF910C94EC02C2
:100800008F929F92AF92BF92FF920F931F93CF93BD
:10081000DF93EC01F62E49015A018E81882389F07D
:100820008F8198859C012F5F3F4F38872F838230BF
:10083000924018F40E94C903F3CFCE010E94B7037F
:100840001E82CE010E94EA038CE291E00E94CC035A
:100850008F2D80640E94C20308E110E0D501C4011D
:10086000002E04C0B695A795979587950A94D2F760
:100870000E94C20308501109083F8FEF180771F753
:1008800085E9FF2021F028E087E8F2128FEF0E942F
:10089000C20310E00E94C9038A8787FF04C01F3F7C
:1008A00011F01F5FF7CFDF91CF911F910F91FF9054
:1008B000BF90AF909F908F900895AF92BF92CF92CC
:1008C000DF92EF92FF920F931F93CF93DF93EC0190
:1008D0006901C801820F931F8130924050F58E81CB
:1008E000882379F088819981AA81BB818417950733
:1008F000A607B70731F48F819885C816D90608F086
:1009000042C0488359836A837B838B85833039F067
:1009100089E0440F551F661F771F8A95D1F79A010A
:10092000AB0161E1CE010E940004882389F083E0DD
:100930008D83CE010E94B70380E0DF91CF911F919C
:100940000F91FF90EF90DF90CF90BF90AF90089500
:100950000E94A2035B010E94C9038A878F3F69F44A
:100960000E94A2036A197B096D327140A0F38FE0E7
:100970008D83CE010E94B703DCCF8E3F89F41886A9
:100980001F8281E08E838F8198858C159D0550F4A0
:100990000E94C9038F819885019698878F83F3CF32
:1009A0008DE0E6CF6701E00EF11E0E94C903F6015B
:1009B00081936F01EE15FF05C1F78F819885080FB0
:1009C000191F18870F838985882319F00115124094
:1009D000A0F08E81882389F08F8198859C012F5FFC
:1009E0003F4F38872F838230924018F40E94C9030A
:1009F000F3CFCE010E94B7031E8281E09ECFCF923B
:100A0000DF92EF92FF920F93CF93DF93EC01690196
:100A100082E1411551056105710599F08B8583309F
:100A200039F089E0440F551F661F771F8A95D1F76B
:100A30009A01AB0168E1CE010E940004882319F0FD
:100A400084E08D832DC08EEF0E94C20376018EEF6D
:100A5000D81AF70181917F010E94C203EC14FD04B2
:100A6000C1F78FEF0E94C2038FEF0E94C2030E9462
:100A7000C9038A878F71853071F4011116C0CE01C8
:100A80000E94B70381E0DF91CF910F91FF90EF902B
:100A9000DF90CF90089581E18D83CE010E94B7034E
:100AA000CE010E94B70380E0EECF88E592E00E947D
:100AB000CC03811102C085E1C4CF20E030E0A90160
:100AC0006DE0CE010E940004882311F084E1B9CFCB
:100AD0000E94C9038111FACFD2CF0F9340910B022C
:100AE00050910C0260910D0270910E02411551055A
:100AF0006105710599F0082F22E232E08091200211
:100B0000909121020E94FF04882349F010920B0269
:100B100010920C0210920D0210920E0281E00F91C1
:100B200008950F93CF93C82F80910A02811105C0B9
:100B3000C1E08C2FCF910F91089540910001509109
:100B4000010160910201709103010C2F22E232E059
:100B500080912002909121020E94FF04811102C025
:100B6000C0E0E7CFCC2321F381E00E946D0588230C
:100B7000B9F310920A02DDCF8F929F92AF92BF928B
:100B8000EF92FF920F931F93CF934B015C01C42F01
:100B90008091000190910101A0910201B0910301A7
:100BA00088159905AA05BB0551F181E00E949105C0
:100BB00081110BC080E0CF911F910F91FF90EF90BA
:100BC000BF90AF909F908F90089582E2E82E82E0D0
:100BD000F82E00E012E030E020E0B501A4018091A1
:100BE0002002909121020E945D04882319F38092D3
:100BF000000190920101A0920201B0920301409184
:100C00000A024C2B40930A0281E0D5CFCF93DF93A9
:100C1000EC016E857F858889998941E00E94BC0539
:100C2000882351F08A8920E2829FC00111248E5DC1
:100C30009D4FDF91CF91089590E080E0FACF8F92A1
:100C40009F92AF92BF92CF92DF92EF92FF92CF939B
:100C500021EC34E03093210220932002882309F410
:100C60006DC040E060E070E0CB010E94BC058111E6
:100C70000BC080E0CF91FF90EF90DF90CF90BF90BE
:100C8000AF909F908F9008958091E0038F7789F7C0
:100C90008091EC039091ED03A091EE03B091EF03EE
:100CA00084369105A105B10520F3C090E803D090EA
:100CB000E903E090EA03F090EB03C114D104E104EE
:100CC000F104B9F240E0C701B6010E94BC058823D7
:100CD00081F280912D0290912E028115924049F669
:100CE000A0913202AA2329F2609130027091310260
:100CF0006115710509F4BDCF20912F02222309F45B
:100D0000B8CFA093DF042093D10490E080E030E0DE
:100D1000E1E0F0E0C82FAF01082E02C0440F551FDC
:100D20000A94E2F72417350769F041E0480F01966D
:100D30008930910579F74093DA049BCFC12CD12CEF
:100D40007601C0CF8093DA042091380230913902C5
:100D500050E040E02115310541F4209146023091E8
:100D6000470240914802509149022093D2043093A7
:100D7000D3044093D4045093D50446015701860E02
:100D8000971EA11CB11C8092E0049092E104A092F5
:100D9000E204B092E304E0913302F0913402F09364
:100DA000E604E093E504B0E00E942325DC01CB01DA
:100DB000880D991DAA1DBB1D8093E7049093E8043C
:100DC000A093E904B093EA0425E0EE0FFF1F2A95F3
:100DD000E1F7E150FE4FEF2FFF27E6958E0F9F1FA3
:100DE000A11DB11D8093DB049093DC04A093DD046E
:100DF000B093DE048090350290903602B12CA12C85
:100E00008114910441F48090420290904302A0909A
:100E10004402B0904502C81AD90AEA0AFB0AC80C73
:100E2000D91CEA1CFB1C04C0F694E794D794C79421
:100E3000CA95D2F7C092D604D092D704E092D804D3
:100E4000F092D90485EFC8168FE0D806E104F104CA
:100E500028F48CE08093E40481E00CCF80E125EF5E
:100E6000C2162FEFD206E104F104A0F380914E02E6
:100E700090914F02A0915002B09151028093E704EB
:100E80009093E804A093E904B093EA0480E2E2CFEF
:100E90004F925F926F927F928F929F92AF92BF928A
:100EA000CF92DF92EF92FF920F931F93CF93DF9336
:100EB000EC01423051056105710590F480E0DF914D
:100EC000CF911F910F91FF90EF90DF90CF90BF9047
:100ED000AF909F908F907F906F905F904F9008950C
:100EE00089859A85AB85BC850196A11DB11D8417A6
:100EF0009507A607B70710F3CB88DC88ED88FE8836
:100F00008F89803109F042C0BB27A72F962F852FEC
:100F1000480159012A013B01C80ED91EEA1EFB1ED9
:100F20008091000190910101A0910201B091030113
:100F3000C816D906EA06FB0699F58F898031C1F5F6
:100F4000B301A201552766277727440F551F4E5D31
:100F50005D4FFA019182808280910A0281608093C4
:100F60000A028A89823080F08D819E81AF81B885A6
:100F70008C0D9D1DAE1DBF1D80930B0290930C0226
:100F8000A0930D02B0930E0281E099CFDB01CA015C
:100F9000E7E0B695A79597958795EA95D1F7B8CFED
:100FA00040E0C701B6010E94BC058111C6CF86CFC3
:100FB000B301A2014F77552766277727440F551FA6
:100FC000440F551F4E5D5D4FFA0180829182A282CF
:100FD000B382C2CF8F929F92AF92BF92CF92DF9295
:100FE000EF92FF920F931F93CF93DF93FC018185C4
:100FF0009285A385B4850196A11DB11D841795071F
:10100000A607B70770F480E0DF91CF911F910F9191
:10101000FF90EF90DF90CF90BF90AF909F908F9018
:10102000089583889488A588B6888789803189F552
:10103000BB27A72F962F852FE9016A017B018F011E
:10104000BC01CD01680D791D8A1D9B1D809000019A
:1010500090900101A0900201B090030186169706BE
:10106000A806B90601F5F8018789803111F5DD245C
:10107000EE24FF24F601EE0FFF1FEE5DFD4F808191
:101080009181B0E0A0E088839983AA83BB8381E04B
:10109000BBCFDB01CA01C7E0B695A79597958795A9
:1010A000CA95D1F7C9CF40E00E94BC058111DBCFC2
:1010B000AACFE894C7F8DD24EE24FF24F601EE0F52
:1010C000FF1FEE0FFF1FEE5DFD4F80819181A2811A
:1010D000B381BF70D8CF4F925F926F927F92AF92E1
:1010E000BF92CF92DF92EF92FF920F931F93CF9315
:1010F000DF9300D000D0CDB7DEB78C0149835A838F
:101100006B837C835901C12CD12C7601412C82E068
:10111000582E612C712C49815A816B817C819E01F2
:101120002F5F3F4FC8010E94EA07882339F1F80179
:101130008585A301920104C0220F331F441F551F50
:101140008A95D2F7DA01C901C80ED91EEA1EFB1E24
:1011500049815A816B817C818789803111F188EFC7
:101160009FEFAFEFBFE0481759076A077B0798F278
:10117000F501C082D182E282F38281E00F900F906C
:101180000F900F90DF91CF911F910F91FF90EF90F3
:10119000DF90CF90BF90AF907F906F905F904F9017
:1011A000089588EF9FEFA0E0B0E0DDCFCF93DF930D
:1011B000FC012581222321F080E0DF91CF91089569
:1011C000EC018091E404803159F582E08583178A2F
:1011D000108E118E128E8091E5049091E604B0E09D
:1011E000A0E025E0880F991FAA1FBB1F2A95D1F701
:1011F000838B948BA58BB68B8DEC94E09C8F8B8F1F
:1012000081E08C831E821F82188619861A861B86AF
:101210001C861D861E861F86188A198A1A8ACDCFBB
:10122000803251F683E085834091E7045091E804D1
:101230006091E9047091EA04478B508F618F728F3F
:101240009F012D5E3F4F8DEC94E00E946B08811151
:10125000D3CFB2CF8F929F92AF92BF92CF92DF92B5
:10126000EF92FF920F931F93CF93DF93EC018D8149
:1012700081110EC080E0DF91CF911F910F91FF90FF
:10128000EF90DF90CF90BF90AF909F908F90089598
:101290000B891C892D893E890417150726073707F6
:1012A00048F34A015B01823031F48A869B86AC8622
:1012B000BD8681E0E0CF81149104A104B10449F41A
:1012C0001E821F82188619861A861B861C861D861A
:1012D000F0CF0A851B852C853D85EB8DFC8D8585A2
:1012E00090E00996B901A8014150510961097109BD
:1012F000082E04C076956795579547950A94D2F7BE
:1013000075016401E1E0CE1AD108E108F10804C0DA
:10131000F694E794D794C7948A95D2F7C416D50665
:10132000E606F70620F0012B022B032B11F58F891F
:10133000988DA98DBA8D8E839F83A887B9878E01DA
:101340000A5F1F4FC114D104E104F10409F4ADCFC9
:101350004E815F816885798598018B8D9C8D0E9477
:10136000EA0791E0C91AD108E108F1088111EACF32
:1013700081CFC41AD50AE60AF70AE1CF3F924F920D
:101380005F926F927F928F929F92AF92BF92CF9215
:10139000DF92EF92FF920F931F93CF93DF93CDB71E
:1013A000DEB72C970FB6F894DEBF0FBECDBF5C0141
:1013B000DC015B968D909C905C9716964D905D90AD
:1013C0006D907C901997411451046104710409F4E3
:1013D00068C0BFEF4B1A5B0A6B0A7B0A312CF40121
:1013E00081859285A385B4859C01AD012F5F3F4F18
:1013F0004F4F5F4F29873A874B875C8773016201A4
:101400001D821E821F821886F40181859285A38524
:10141000B4852D813E814F815885281739074A07A9
:101420005B0708F056C089859A85AB85BC858C150D
:101430009D05AE05BF0550F482E0C82ED12CE12CED
:10144000F12C92E0492E512C612C712C9E012F5FC2
:101450003F4FB701A601C4010E94EA078823C9F1E2
:1014600089819A81AB81BC81892B8A2B8B2B09F1D5
:10147000260137019FEF491A590A690A790A2D8115
:101480003E814F8158852F5F3F4F4F4F5F4F2D83D8
:101490003E834F8358873FEFC31AD30AE30AF30A08
:1014A000B3CFF40140805180628073803324339441
:1014B00096CFC414D504E604F70409F70FEF1FEF25
:1014C0002FEF3FE0B701A601C4010E944807811138
:1014D00019C080E02C960FB6F894DEBF0FBECDBFCA
:1014E000DF91CF911F910F91FF90EF90DF90CF9000
:1014F000BF90AF909F908F907F906F905F904F9034
:101500003F900895D50116964D915D916D917C9116
:101510001997411551056105710539F0970186014B
:10152000C4010E9448078823A1F2D5011696CD92E6
:10153000DD92ED92FC921997332051F0D701C6014C
:101540000196A11DB11DF40180839183A283B38311
:10155000F5018789908DA18DB28D892B8A2B8B2BDC
:1015600039F48481C78AD08EE18EF28E80688483BC
:10157000F50184818062848381E0ACCF2F923F9219
:101580004F925F926F927F928F929F92AF92BF9293
:10159000CF92DF92EF92FF920F931F93CF93DF933F
:1015A000EC015B012A018D81811115C08FEF9FEF46
:1015B000DF91CF911F910F91FF90EF90DF90CF902F
:1015C000BF90AF909F908F907F906F905F904F9063
:1015D0003F902F9008958C8180FFE8CF0B891C8964
:1015E0002D893E894A855B856C857D85C201B0E089
:1015F000A0E068017901C41AD50AE60AF70AC816FC
:10160000D906EA06FB0618F42801441A550A4201D5
:101610001E0126E0220E311C8114910409F4B3C08E
:101620004A855B856C857D856A0181E0D8228B8D3A
:101630009C8D8A019B01E9E03695279517950795C2
:10164000EA95D1F7ED81E230E1F5FC01628D738D11
:10165000848D958D600F711F821F931F612C22E076
:10166000722E6C187D088614970408F434012C81BE
:1016700026FD04C06114F2E07F0671F400910001C0
:101680001091010120910201309103010617170703
:101690002807390709F053C040E00E94BC058823A1
:1016A00009F484CFC6018E5D9D4FD5019C01260DA6
:1016B000371DFC012E173F0709F460C041914D937F
:1016C000F9CFFC0174807A947022C114D10471F4B2
:1016D00071100CC0452B462B472B39F58F89988DFF
:1016E000A98DBA8D8E839F83A887B987EB8DFC8DDA
:1016F0006E817F8188859985625071098109910980
:10170000258504C0660F771F881F991F2A95D2F779
:101710000685178520893189600F711F821F931FED
:10172000670D711D811D911D99CF4E815F81688567
:10173000798591010E94EA078111D8CF37CF7501D1
:1017400083019601AB01BC0180912002909121029E
:101750000E945D04882309F429CFA60CB71C8A8552
:101760009B85AC85BD85860D971DA11DB11D8A8702
:101770009B87AC87BD87861897084ECF281B390BEF
:10178000A20EB31EECCFC20113CF1F93CF93DF93F2
:10179000FC012581222371F1162FEC01848187FF42
:1017A0001EC0CF010E940606FC01892B19F18D8114
:1017B000823040F48B899C89AD89BE89848F958F56
:1017C000A68FB78F8F89988D938F828F8F89988DF1
:1017D000A98DBA8DB58BA48B8C818F778C831111D9
:1017E00003C08C818F7E8C83812FDF91CF911F91DD
:1017F0000C94910580E0DF91CF911F910895FF92A5
:101800000F931F93CF93DF93EC018D81813041F0D3
:1018100090E080E0DF91CF911F910F91FF900895AC
:101820008C8181FFF5CF82FD1BC0009120021091B9
:101830002102C8010E94EA030E94C903F82EC801D0
:101840000E94B7038FEFF812E3CF8C8185FF1BC096
:1018500060E0CE010E94C50B8C818F7D8C83D8CF38
:101860004B895C896D897E898A859B85AC85BD8520
:1018700084179507A607B707C1F2CE010E942A096F
:101880008111D3CFC5CF40910B0250910C026091D2
:101890000D0270910E02452B462B472B21F080E064
:1018A0000E946D05B5CF80618C832A853B853170A0
:1018B00080E092E0821B930BADCFCF93DF93EC01DE
:1018C00061E00E94C50B882311F01D8281E0DF9149
:1018D000CF9108952F923F924F925F926F927F9295
:1018E0008F929F92AF92BF92CF92DF92EF92FF9230
:1018F0000F931F93CF93DF9300D000D01F92CDB7EB
:10190000DEB77C015B01342E5D83DC0115968C9182
:101910001597813009F0CEC014962C9021FECAC0D4
:1019200022FCB4C0C32CDD8022947FE027222094C7
:10193000B22DB1702B2ED7011A964D915D916D91FC
:101940007C911D97C114D10409F428C15B968D9137
:101950009C915C97FC0174807A948A019B0169E0F8
:1019600036952795179507956A95D1F770228A01C4
:101970001170711020C001151105E9F416964D91F2
:101980005D916D917C911997411551056105710526
:1019900009F099C057968D919D910D90BC91A02D05
:1019A0000097A105B10509F0B0C0C7010E94BE09AA
:1019B000882309F47FC080E092E0801B910B4601F0
:1019C0008C159D0508F44C01D7015B964D915C91F7
:1019D0005C9716968D919D910D90BC91A02D0297CC
:1019E000A109B109FA01258504C0880F991FAA1F12
:1019F000BB1F2A95D2F74685578560897189840F68
:101A0000951FA61FB71F9C01AD01270D311D411D5C
:101A1000511D29013A01811432E0930609F07BC07F
:101A20008091000190910101A0910201B091030108
:101A300084159505A605B70559F48FEF9FEFDC01D6
:101A40008093000190930101A0930201B0930301E0
:101A5000022D9501B301A2018091200290912102F3
:101A60000E94FF04882331F19EEFB91AC818D908E3
:101A7000F70182859385A485B585880D991DA11DE3
:101A8000B11D82879387A487B58755CFF701438916
:101A900054896589768982859385A485B58548179B
:101AA00059076A077B0709F43DCFC7010E942A093D
:101AB000811138CF81E090E0D70113969C938E93EB
:101AC000129780E007C09E012F5F3F4F0E94EA07F8
:101AD000811102C090E079C089819A81AB81BC817B
:101AE000F701238D348DF901278948EF5FEF60E01E
:101AF00070E0203121F048EF5FEF6FEF7FE0841757
:101B00009507A607B70708F050CFF701868397839C
:101B1000A087B18750CF0115110599F5D7011A9605
:101B20004D915D916D917C911D9753968D919D91F5
:101B30000D90BC91A02D481759076A077B0708F143
:101B400081E00E949105882309F4B4CF40920001FE
:101B500050920101609202017092030180910A0289
:101B6000816080930A02C8018E5D9D4FD5019C0162
:101B7000280D391DFC012E173F0759F04D91419357
:101B8000FACF41E0C301B2010E94BC058111EBCF45
:101B900091CF281B390BA20EB31E68CFF7018389A2
:101BA0009489A589B68984179507A607B70738F4DD
:101BB0008481438B548B658B768B80688483F7019B
:101BC000848183FD1AC0832D9D810F900F900F900B
:101BD0000F900F90DF91CF911F910F91FF90EF9099
:101BE000DF90CF90BF90AF909F908F907F906F903D
:101BF0005F904F903F902F90089561E0C7010E9441
:101C0000C50B882309F456CFDECFCF93DF931F9205
:101C1000CDB7DEB7698341E050E0BE016F5F7F4F13
:101C20000E946A0C0F90DF91CF910895FC01DB01B7
:101C300012968D919C9113979383828386E791E00E
:101C40009183808314968C911497848315968C913C
:101C50001597858316964D915D916D917C9119979D
:101C600046835783608771871A964D915D916D9178
:101C70007C911D9742875387648775871E964D9187
:101C80005D916D917C91519746875787608B718BE1
:101C900052968C915297828B53964D915D916D9196
:101CA0007C915697438B548B658B768B57964D91D1
:101CB0005D916D917C915A97478B508F618F728F98
:101CC0005B968D919C91948F838F0895FC01818DFB
:101CD000928D009719F061E00C94C50B0895DC011A
:101CE0005996ED91FC913097B9F083899489A58933
:101CF000B6894285538564857585841B950BA60B33
:101D0000B70B811520E89207A105B10538F08FEFD8
:101D10009FE7A0E0B0E0089590E080E00895DC0146
:101D200059968D919C91009739F0DC01ED91FC91D1
:101D30000480F581E02D099490E080E00895CF9330
:101D4000DF93EC01E98DFA8D309749F481E090E062
:101D50009B838A8390E080E0DF91CF910895138286
:101D60001282898D9A8D0E946A0CE98DFA8D2281EA
:101D70003381232B59F7F0CFCF93DF931F92CDB749
:101D8000DEB76983DC01ED91FC910280F381E02DE7
:101D900041E050E0BE016F5F7F4F09950F90DF91EA
:101DA000CF910895CF93DF931F92CDB7DEB741E077
:101DB00050E0BE016F5F7F4F0E94BE0A019731F471
:101DC000898190E00F90DF91CF9108958FEF9FEF81
:101DD000F9CFFC01818D928D009711F00C94D20EF9
:101DE0008FEF9FEF08950F931F93CF93DF93EC0135
:101DF0000E94A203688779878A879B87CE010E9409
:101E0000E90E97FF15C00E94A203088519852A854F
:101E10003B85601B710B820B930B0C811D812E8106
:101E20003F81601771078207930740F38FEF9FEFA1
:101E3000DF91CF911F910F9108950F931F93CF932F
:101E4000DF93EC01898D9A8D10E000E0009799F006
:101E50000E94D20E8C010F3F100769F0898D9A8D78
:101E6000FC0142855385648575854150510961099E
:101E700071090E942A09C801DF91CF911F910F912A
:101E800008950F931F93CF93DF93EC010E94A20359
:101E9000688779878A879B87CE010E941D0F97FFED
:101EA00015C00E94A203088519852A853B85601B01
:101EB000710B820B930B0C811D812E813F8160176A
:101EC00071078207930740F38FEF9FEFDF91CF9168
:101ED0001F910F910895CF93DF93282F30E0F901E0
:101EE000EA5CFD4F8491F901EC5AFD4FD491F90160
:101EF000E859FD4FC491CC2379F081110E94C302AF
:101F0000EC2FF0E0EE0FFF1FE859FF4FA591B491C1
:101F1000EC91ED23C1E009F4C0E06AE070E080E0FC
:101F200090E00E9470038C2F8170DF91CF91089513
:101F30008F929F92AF92BF92CF92DF92EF92FF92D9
:101F40000F931F93CF93DF9300D000D0CDB7DEB7B0
:101F5000FC018581813091F080E00F900F900F900F
:101F60000F90DF91CF911F910F91FF90EF90DF9035
:101F7000CF90BF90AF909F908F900895848181FF04
:101F8000EBCF83899489A589B689892B8A2B8B2BE2
:101F900009F45FC07F0140E050E0BA01CF010E9428
:101FA0002A098823C9F2F701C38CD48C8788908CC6
:101FB000A18CB28C82E090E0A0E0B0E0F6018083DA
:101FC0009183A283B3839E012F5F3F4FB501A4018C
:101FD000C6010E94EA07882309F4BECF00E010E0A2
:101FE0009801B501A401C6010E944807882309F49D
:101FF000B3CF89809A80AB80BC80F601878980311D
:1020000019F188EF9FEFAFEFBFE088169906AA0697
:10201000BB06C8F2F701178A108E118E128E138A32
:10202000148A158A168A84818068848361E0C701D6
:102030000E94C50B882309F48FCF40E050E0BA011D
:10204000C7010E942A0989CF88EF9FEFA0E0B0E086
:10205000DCCF81E082CFCF92DF92EF92FF921F938D
:10206000CF93DF93EC0180E2689FF0011124EE5DD5
:10207000FD4F9385917161F0842F827449F080E067
:10208000DF91CF911F91FF90EF90DF90CF90089557
:10209000142F6A8B8091000190910101A09102019F
:1020A000B09103018E879F87A88BB98BC488D58890
:1020B000F12CE12C7601DD24CC24CF8AD88EE98E58
:1020C000FA8E828D938DB0E0A0E0AC01BD014C2969
:1020D0005D296E297F294F8B588F698F7A8F838571
:1020E0008871B1F4848D958DA68DB78D8B8B9C8B6B
:1020F000AD8BBE8B81E08D831F701C831E821F827F
:10210000188619861A861B861C861D8681E0B8CF24
:10211000803109F0B4CF9E012D5E3F4F8B8D9C8D99
:102120000E946B08882309F4AACF84E0E4CFCF9300
:10213000DF93EC0160E08E810E94EC0261E08E8111
:102140000E94EC0260E08E810E94EC028BE891E03C
:102150000197F1F7DF91CF910895CF92DF92EF923F
:10216000FF920F931F93CF93DF936C017C0187E065
:10217000E80EF11CD0E0C0E0062F10E0B8010C2EF4
:1021800002C0759567950A94E2F76170F701819135
:102190007F010E94EC022196C430D10579F7C60177
:1021A000DF91CF911F910F91FF90EF90DF90CF9033
:1021B0000C949710CF92DF92EF92FF920F931F93A0
:1021C000CF93DF93EC01F62E642F8C810E94EC02FA
:1021D0008D818F3F19F060E00E94EC020F2D10E01E
:1021E0008F8584FF25C06E0187E0C80ED11CF12CBD
:1021F000E12CB8010E2C02C0759567950A94E2F7A0
:102200006170F60181916F010E94EC02FFEFEF1AFD
:10221000FF0A88E0E816F10461F7CE01DF91CF9163
:102220001F910F91FF90EF90DF90CF900C9497103B
:10223000B80184E0759567958A95E1F7CE010E9413
:10224000AD106F2DCE01DF91CF911F910F91FF90B7
:10225000EF90DF90CF900C94AD1040E0682F80E1BC
:1022600095E00C94DA10CF93DF93823029F49091AB
:102270001F05986090931F058093230510922405F5
:1022800080E48093250580E18093260580E5809396
:10229000270561E0809114050E941A0380911505BD
:1022A0008F3F19F061E00E941A0361E080911605EA
:1022B0000E941A03C0E1D5E09E0120513540809173
:1022C0001F0584FD0BC084E090E021962817390794
:1022D00044F461E08E810E941A03EECF88E090E022
:1022E000F4CF8BE39DE00197F1F760E08091140556
:1022F0000E94EC0260E0809116050E94EC02809141
:1023000015058F3F19F060E00E94EC0280911F05D7
:1023100084FD39C063E080E195E00E94AD10CBE41C
:10232000D6E4CE010197F1F763E080E195E00E94E9
:10233000AD102197F1F763E080E195E00E94AD10C8
:1023400083E592E00197F1F762E080E195E00E9479
:10235000AD1080911F0580620E942D1184E0809352
:1023600020058CE00E942D1181E00E942D118BE34D
:102370009FE10197F1F782E08093210586E0DF91EC
:10238000CF910C942D1180620E942D118BE496E464
:102390000197F1F780911F0580620E942D1183E55E
:1023A00092E00197F1F780911F0580620E942D1144
:1023B000D0CF90912305691710F06FEF690FE62FCA
:1023C000F0E0E05FFA4F9489890F80680C942D113A
:1023D00041E00E94DA1081E090E008950F931F938E
:1023E000CF93DF938C01D0E0C0E0F801EC0FFD1F2C
:1023F0006491662339F041E080E195E00E94DA10B3
:102400002196F3CFCE01DF91CF911F910F910895C7
:1024100082E294E00E94F2018F36D1F760E08EE014
:102420000E94D91189E192E00E94EE1164E670E009
:1024300080E090E00C94700360E080E00E94D9118D
:1024400088E092E00E94EE1161E080E00E94D911E4
:1024500087EF91E00C94EE11FB0101900020E9F769
:102460003197AF01461B570BDC01ED91FC910280C7
:10247000F381E02D09948F929F92AF92BF92EF92D9
:10248000FF920F931F93CF93DF93CDB7DEB7A19742
:102490000FB6F894DEBF0FBECDBF7C01FA01CB01B1
:1024A00019A2223008F42AE08E010F5D1F4F822E00
:1024B000912CB12CA12CBF01A50194010E941A26D8
:1024C000F901CA016A300CF5605DD8016E938D0187
:1024D000232B242B252B79F790E080E0109721F017
:1024E000BD01C7010E942C12A1960FB6F894DEBF61
:1024F0000FBECDBFDF91CF911F910F91FF90EF9055
:10250000BF90AF909F908F900895695CDECFCF927F
:10251000DF92EF92FF920F931F93CF93DF936B01A4
:10252000770FEE08FF08F7FE1BC0EC016DE20E947A
:10253000A1018C0144275527BA014C195D096E0988
:102540007F092AE0CE010E943B12800F911FDF918C
:10255000CF911F910F91FF90EF90DF90CF90089552
:102560002AE0B701A601DF91CF911F910F91FF9053
:10257000EF90DF90CF900C943B128F929F92AF928E
:10258000BF92CF92DF92EF92FF920F931F93CF9360
:10259000DF93EC016A017B01AB019601CB01B6012F
:1025A0000E9415266AE871E0811126C04601570194
:1025B000E894B7F82FEF3FEF4FE75FE7C501B401AD
:1025C0000E94152681110CC02FEF3FEF4FE75FE708
:1025D000C501B4010E94FC236EE871E0181664F096
:1025E0002FEF3FEF4FE75FE4C701B6010E941026CF
:1025F00018168CF462E971E0CE01DF91CF911F9142
:102600000F91FF90EF90DF90CF90BF90AF909F9091
:102610008F900C942C122FEF3FEF4FE75FECC70128
:10262000B6010E94FC2387FDE5CF20E030E0A90140
:10263000C701B6010E94FC2310E000E087FF09C03B
:102640006DE2CE010E94A1018C01F7FAF094F7F837
:10265000F0942AE037ED43EA5BE3C701B6010E943C
:1026600075256B017C010E94E1254B015C010E94F4
:1026700001249B01AC01C701B6010E9474256B01C6
:102680007C012AE0B501A401CE010E943B12080F93
:10269000191F6EE2CE010E94A101080F191F20E050
:1026A00030E040E251E4C701B6010E9462244B01D0
:1026B0005C010E94E1256B01F12CE12C2AE0B701BD
:1026C000A601CE010E943B12080F191FC701B601D7
:1026D0000E9401249B01AC01C501B4010E94742534
:1026E00020E030E040E251E40E9462240E94E125B3
:1026F000AB0170E060E02AE0CE010E943B12800F47
:10270000911FDF91CF911F910F91FF90EF90DF907C
:10271000CF90BF90AF909F908F900895CF93DF930D
:10272000EC010E941C12C431D10509F43FC10CF028
:1027300054C0CA30D10509F4FDC004F5C230D1053A
:1027400009F4DAC034F4219709F4C4C0DF91CF91C1
:102750000895C330D10509F4DEC02497B9F760E0CD
:1027600080E00E94D91185EB91E00E94EE1161E0BA
:1027700080E00E94D91187EA91E0BAC0CD30D1053E
:1027800009F4F6C0ACF4CB30D10509F4E2C02C97C3
:10279000E9F660E080E00E94D9118BE791E00E94A9
:1027A000EE1161E080E00E94D91184E791E0A0C0C1
:1027B000CE30D10509F4EBC02F9741F660E080E000
:1027C0000E94D91185E491E00E94EE1161E080E061
:1027D0000E94D91186E391E08BC0C832D10509F47B
:1027E00017C16CF5CF31D10509F4F4C094F46E979C
:1027F00009F0ACCF60E080E00E94D91181E291E065
:102800000E94EE1161E080E00E94D91186E191E022
:102810006FC0C032D10509F4ECC0A19709F096CF82
:1028200060E080E00E94D91188ED90E00E94EE11F6
:1028300061E080E00E94D9118FEC90E059C0C5366C
:10284000D10509F403C144F5C932D10509F4EFC03B
:10285000C436D10509F07ACF60E080E00E94D9113A
:1028600083E990E00E94EE1161E080E00E94D911BE
:10287000E0910E01F0910F01EE0FFF1FEE0FFF1F11
:10288000E65EFE4F408151816281738180E195E077
:10289000DF91CF910C94BD12C636D10509F4E7C083
:1028A000C736D10509F052CF60E080E00E94D9110F
:1028B00082E790E00E94EE1161E080E00E94D91171
:1028C000609108017091090180E195E0DF91CF915D
:1028D0000C94871260E080E00E94D9118DEE91E0A7
:1028E0000E94EE1161E080E00E94D91188EE91E033
:1028F000DF91CF910C94EE1160E080E00E94D9113D
:102900008EED91E00E94EE1161E080E00E94D9110D
:1029100086ED91E0EDCF60E080E00E94D9118CEC73
:1029200091E00E94EE1161E080E00E94D9118FEBEE
:1029300091E0DECF60E080E00E94D9118DE991E066
:102940000E94EE1161E080E00E94D91186E991E0D9
:10295000CFCF60E080E00E94D9118CE891E00E9426
:10296000EE1161E080E00E94D91185E891E0C0CFCE
:1029700060E080E00E94D9118AE691E00E94EE11A9
:1029800061E080E00E94D91184E691E0B1CF60E07F
:1029900080E00E94D9118AE591E00E94EE1161E089
:1029A00080E00E94D9118FE491E0A2CF60E080E046
:1029B0000E94D9118EE291E00E94EE1161E080E068
:1029C0000E94D9116AE075E080E195E0DF91CF9136
:1029D0000C94A80160E080E00E94D91189E091E0A8
:1029E0000E94EE1161E080E00E94D9118DEF90E02D
:1029F0007FCF60E080E00E94D91180EF90E00E94DC
:102A0000EE1161E080E00E94D91185EE90E070CF78
:102A100060E080E00E94D91181EC90E00E94EE110C
:102A200061E080E00E94D91189EB90E061CF60E025
:102A300080E00E94D9118BEA90E00E94EE1161E0E3
:102A400080E00E94D9118DE990E052CF60E080E0F3
:102A50000E94D91189E890E00E94EE1161E080E0C7
:102A60000E94D911E0910C01F0910D0105CF60E0B9
:102A700080E00E94D9118FE790E00E94EE1161E0A2
:102A800080E00E94D911E0910A01F0910B01F4CE8F
:102A9000BC0182E294E00C942C1266E971E00C9483
:102AA0002C120F931F93CF93DF938C01EB01FC014A
:102AB000808191810097E1F06881798161157105CC
:102AC000A9F0428153812C813D814217530770F058
:102AD0000E9456288C819D81F801958384831D82F4
:102AE0001C82DF91CF911F910F9108950E94DE26E5
:102AF00088819981F801918380838A819B81938366
:102B000082838C819D8195838483198218821B82A4
:102B10001A82E5CFFC0180819181009711F00C941D
:102B2000DE260895CF93DF93EC01898D9A8D00976F
:102B300041F00E945D0C898D9A8D0E94DE261A8ECE
:102B4000198EDF91CF9108950F931F93CF93DF9349
:102B5000EC0188819981009759F02A813B812617E1
:102B6000370730F081E0DF91CF911F910F910895E9
:102B70008B016F5F7F4F0E946727009759F0998301
:102B800088831B830A832C813D81232B59F7FC0109
:102B90001082E8CF80E0E7CFEF92FF920F931F9370
:102BA000CF93DF93EC017B01FB0101900020E9F75B
:102BB00031978F01061B170BB8010E94A4152881BD
:102BC0003981811113C02115310519F0C9010E9405
:102BD000DE26198218821D821C821B821A82DF91D6
:102BE000CF911F910F91FF90EF9008951D830C835B
:102BF000B701C901DF91CF911F910F91FF90EF9025
:102C00000C945628AF92BF92CF92DF92EF92FF9230
:102C10000F931F93CF93DF9300D0CDB7DEB78C0116
:102C20005B01C42EFC011182108213821282158274
:102C3000148268E971E00E94CC15C5010E94F30E70
:102C40000C2C000CDD0897FD24C0C816D90609F12C
:102C500089831A82F801E480F580FFEFEF1AFF0AFA
:102C6000B701C8010E94A415882379F0F8012081DA
:102C7000318184819581BE016F5F7F4F820F931FE9
:102C80000E945628F801F582E482C5010E94F30EE5
:102C9000DACFC8010F900F90DF91CF911F910F9164
:102CA000FF90EF90DF90CF90BF90AF9008953F924C
:102CB0004F925F926F927F928F929F92AF92BF924C
:102CC000CF92DF92EF92FF920F931F93CF93DF93F8
:102CD000CDB7DEB72B970FB6F894DEBF0FBECDBFD2
:102CE0007C01DC0115968C91811115C0FE01319695
:102CF000CE010C966F0130E23193E817F907E1F746
:102D0000DA0130E087E09D91B92E992329F19E32B6
:102D100039F48A3011F480E0DAC038E08AE0F3CF89
:102D2000ECE1F2E04491442321F031969413FACF80
:102D3000F2CF831780F34FED490F4E3560F74FE91F
:102D4000490F4A3118F440EEB42EB90EF601E30FE4
:102D5000F11DB0823F5FD7CF89818032E1F2322E00
:102D60008B01FB01838D948DD7015C969C938E9390
:102D70005B97168217821086118612861386148638
:102D80001586F80182859385A485B5854389548984
:102D90006589768984179507A607B70708F04DC09F
:102DA00025E0B695A795979587952A95D1F7F82FA1
:102DB000FF70AF2ED80115968C91823008F4ABCFFE
:102DC000C8010E94D20E97FDA6CFF8018285938597
:102DD000A485B5854F96A11DB11D82879387A487D1
:102DE000B587F0E2AF9EB00111246E5D7D4F611595
:102DF000710509F490CFDB018C91882341F0853E69
:102E000009F058C0BB2029F0BB24B394BACFB1104D
:102E10000EC0F701A28A8091000190910101A0915A
:102E20000201B091030186879787A08BB18BDB01EC
:102E30008C918111E9CFBB24B394832D82718231AF
:102E400009F069CFBB2009F45AC0C7010E940606E9
:102E5000009709F460CF20E2FC0111922A95E9F76E
:102E60002BE0F601DC0101900D922A95E1F721E2B9
:102E700038E2DC0151963C932E93509740E058E0A5
:102E80001F965C934E931E9753963C932E935297A6
:102E900059963C932E93589757965C934E9356971A
:102EA00081E00E949105882309F435CF432DF70175
:102EB00062890AC04BE050E0C6010E942C28892B91
:102EC00009F05FCF432D6A2DC7010E942B102B966E
:102ED0000FB6F894DEBF0FBECDBFDF91CF911F912B
:102EE0000F91FF90EF90DF90CF90BF90AF909F90A9
:102EF0008F907F906F905F904F903F900895F80172
:102F00008581823009F407CFC8010E94BE09882359
:102F100009F401CFD8015B96ED91FC915C97169670
:102F20008D909D90AD90BC901997B2E08B1A91084E
:102F3000A108B108858504C0880C991CAA1CBB1C7B
:102F40008A95D2F786859785A089B189880E991EC2
:102F5000AA1EBB1E848124013501480E511C611C30
:102F6000711C84149504A604B70409F1E1E04E1A1B
:102F700051086108710881E00E949105882309F4D5
:102F8000CACEE2E2F2E0119282E294E08E179F074D
:102F9000D1F74092000150920101609202017092BB
:102FA000030180910A02816080930A02DACFD8017E
:102FB0005B96ED91FC91258580E092E0A0E0B0E089
:102FC00004C0880F991FAA1FBB1F2A95D2F7F801CA
:102FD0004389548965897689840F951FA61FB71F79
:102FE000838B948BA58BB68BD70152961C9282E271
:102FF00092E031CF7F928F929F92AF92BF92CF9209
:10300000DF92EF92FF920F931F93CF93DF93CDB791
:10301000DEB7C754D1090FB6F894DEBF0FBECDBFDF
:103020005C0119A218A286E791E09F8F8E8F1BA2E8
:103030001C821B829A8389831E82912C812C7E01A3
:103040008EE1E80EF11C0BEE14E0C401F401E7562A
:10305000FE4F20812F3209F40196DC01A756BE4FA6
:10306000FE01FB9630E020E06F014D914F3249F0B8
:10307000442339F001962F5F3F4F41932C303105A7
:10308000A1F72C0D3D1DF9011082FC01E756FE4F02
:1030900020812F3209F401964C01FC01E756FE4FC6
:1030A000708041E0711040E030E020E0B601C801DE
:1030B000F501099581111EC0F4E00B3E1F07B1F424
:1030C00080E0C95BDF4F0FB6F894DEBF0FBECDBF07
:1030D000DF91CF911F910F91FF90EF90DF90CF90F4
:1030E000BF90AF909F908F907F900895C8010E94ED
:1030F0005D0CE6CF772089F021E0A601B801C70179
:103100000E945716D82E84E00B3E180779F0C801AC
:103110000E945D0CD1100FC0D3CFE4E00B3E1E0720
:1031200019F0C8010E945D0C81E0CBCFDD2041F297
:103130008E010F5F1F4F902F812F8701E92EF82EF0
:1031400084CF1F93CF93DF93CDB7DEB76D970FB6C4
:10315000F894DEBF0FBECDBFAB011C821B8226E7F9
:1031600031E03A8329831E8221E0BC01CE01019621
:103170000E94571611E081110CC010E0812F6D964E
:103180000FB6F894DEBF0FBECDBFDF91CF911F9178
:103190000895CE0101960E945D0CF0CFCF93DF938E
:1031A000CDB7DEB76D970FB6F894DEBF0FBECDBFBB
:1031B000442399F1AB01BC011C821B8286E791E09C
:1031C0009A8389831E8222E0CE0101960E945716BF
:1031D00081110EC090E081E0911101C080E06D96F8
:1031E0000FB6F894DEBF0FBECDBFDF91CF9108952B
:1031F000CE0101960E94980F882361F3CE010196BB
:103200000E940606009731F325EEFC0120831E8202
:1032100081E00E949105982FDECF81E0E0CFEF9210
:10322000FF920F931F93CF93DF93EC017B018A01F1
:103230001B821A8288EE93E0A0E0B0E08C839D832D
:10324000AE83BF8382E591E0998388838DE190E02E
:103250000E9442269A8F898F009779F02DE1F7011D
:10326000DC0101900D922A95E1F74CE050E0B801A5
:10327000CE010C960E945D28188EDF91CF911F9190
:103280000F91FF90EF9008952F923F924F925F928F
:103290006F927F928F929F92AF92BF92CF92DF9266
:1032A000EF92FF920F931F93CF93DF93CDB7DEB7CB
:1032B000C756D1090FB6F894DEBF0FBECDBF5C0173
:1032C0003B01A6964FAFA69719A218A286E791E0F8
:1032D0009F8F8E8F1BA21C821B829A8389831E82E2
:1032E0004E018EE1880E911CC4010E94D608630134
:1032F0008E010F5F1F4F240118016FE270E0C601BD
:103300000E944228009709F459C0F60120812F320B
:1033100071F4FFEFCF1ADF0A902F812F8201492E1F
:10332000582E942D852D2801092F182FE6CF8C19A2
:103330008D3008F08CE0E82EF12CA701B601CE010B
:10334000885A9F4F0E945D28E8E5F0E0EC0FFD1FD2
:10335000EE0DFF1D1082C8010E945D0C21E0AE0140
:10336000485A5F4FB201C8010E945716811120C010
:103370001EAE1DAE86E791E09CAF8BAF21961FAECF
:103380002197A896EEADFFADA8976E0E7F1EF301B4
:103390008081811120C0BE01655C7F4FC1010E9408
:1033A000160E42EA51E0B101C5010E940F1931C069
:1033B000CE0CDF1CC2010E945D0CB3CFC601861982
:1033C0009709A8969FAF8EAFA897B201CE01CB9672
:1033D0000E94160ED6CF19A218A286E791E09F8F01
:1033E0008E8F1BA221968FAD219781112DC0F501E3
:1033F0001382128288EE93E0A0E0B0E0848395838C
:10340000A683B78382E591E091838083128E118E2B
:103410001486C501C959DF4F0FB6F894DEBF0FBE41
:10342000CDBFDF91CF911F910F91FF90EF90DF9073
:10343000CF90BF90AF909F908F907F906F905F9054
:103440004F903F902F900895A6962FADA697A30179
:10345000BE01655C7F4FC4010E945716882339F274
:10346000CE01CB960E945D0CA6968FADA697867076
:10347000863039F449A95AA96BA97CA9C4010E94D4
:103480002A09B401C1010E94160EA3018CCFBF927C
:10349000CF92DF92EF92FF920F931F93CF93DF9320
:1034A000CDB7DEB7A1970FB6F894DEBF0FBECDBF84
:1034B0008C0141E069E971E0CE0101960E94441956
:1034C000EA8DFB8D309709F467C08581882309F464
:1034D00063C0CE0101960E94410FFC01C12CD12C8A
:1034E000760197FD42C08D32910521F0C0970A9771
:1034F00008F066C0C12CD12C7601B12CE130F10569
:10350000D9F0ED32F10509F460C0CF01C0970A97F8
:1035100098F4AAE0B0E0A70196010E9423256F016C
:10352000FF0FEE08FF08C60ED71EE81EF91E80E347
:10353000C81AD108E108F108CE0101960E94E90EEF
:10354000CE0101960E94410FFC01C0970A97B0F28C
:10355000E130F10599F2BB2041F0F094E094D09471
:10356000C094C11CD11CE11CF11C0C151D0509F0F7
:10357000B0CF4DE0BE016F5F7F4FCE014C960E94F1
:103580000216BE01645E7F4F8AE095E00E945115ED
:10359000CE014C960E948A15CE0101960E9492158A
:1035A000A1960FB6F894DEBF0FBECDBFDF91CF91CD
:1035B0001F910F91FF90EF90DF90CF90BF900895F3
:1035C000CE0101960E94E90E84CFBB24B394B4CF00
:1035D0001F920F920FB60F9211242F933F934F9388
:1035E0005F936F937F938F939F93AF93BF93EF936B
:1035F000FF9382E294E00E943402FF91EF91BF9129
:10360000AF919F918F917F916F915F914F913F917A
:103610002F910F900FBE0F901F9018951F920F9231
:103620000FB60F9211242F938F939F93EF93FF93D5
:10363000E0913204F09133048081E0913804F091FC
:10364000390482FD1BC0908180913B048F5F8F7392
:1036500020913C04821741F0E0913B04F0E0EE5DE4
:10366000FB4F958F80933B04FF91EF919F918F913A
:103670002F910F900FBE0F901F9018958081F4CF5F
:103680001F920F920FB60F9211242F933F938F9397
:103690009F93AF93BF938091100290911102A091DC
:1036A0001202B091130230910F0223E0230F2D3745
:1036B00058F50196A11DB11D20930F0280931002B1
:1036C00090931102A0931202B093130280911402FE
:1036D00090911502A0911602B09117020196A11DBA
:1036E000B11D8093140290931502A0931602B0931B
:1036F0001702BF91AF919F918F913F912F910F90A2
:103700000FBE0F901F90189526E8230F0296A11D5B
:10371000B11DD2CFE2E2F4E01382128288EE93E090
:10372000A0E0B0E084839583A683B78384E691E02C
:103730009183808385EC90E09587848784EC90E08A
:103740009787868780EC90E0918B808B81EC90E06E
:10375000938B828B82EC90E0958B848B86EC90E04F
:10376000978B868B118E128E138E148EEFEBF4E0F6
:1037700080E580831182E1ECF4E0158216821186E7
:10378000138682E090E0A0E0B0E084879587A6876A
:10379000B78713A215A614A686E791E093A782A780
:1037A00017A6E0E1F5E01382128282E891E09183AE
:1037B000808387E084838FEF858386E0868385E03E
:1037C000878384E0808783E0818782E08287138615
:1037D000148615861686178681E00E943311EAE06A
:1037E000F5E011821082138212821582148268E938
:1037F00071E0CF010C94CC15CF93DF93CDB7DEB73A
:10380000C35AD1090FB6F894DEBF0FBECDBF78946E
:1038100084B5826084BD84B5816084BD85B58260D5
:1038200085BD85B5816085BD80916E008160809386
:103830006E001092810080918100826080938100EF
:1038400080918100816080938100809180008160FF
:10385000809380008091B10084608093B10080915A
:10386000B00081608093B00080917A008460809382
:103870007A0080917A00826080937A0080917A0049
:10388000816080937A0080917A00806880937A00CA
:103890001092C100E0913204F091330482E0808301
:1038A000E0912E04F0912F041082E0913004F09109
:1038B000310480E1808310923A04E0913604F09163
:1038C000370486E08083E0913404F09135048081F0
:1038D00080618083E0913404F091350480818860B8
:1038E0008083E0913404F091350480818068808386
:1038F000E0913404F091350480818F7D8083809144
:10390000F004882321F08BEE94E00E945D0C10926D
:10391000CC041092CA041092C7041092C6048AE024
:103920008093C5040E94A2038B0161E08091C504CD
:103930000E941A0361E08091C5040E94EC02FFB668
:10394000F89480911802811127C0E2E7F2E0849197
:10395000EEE5F2E09491E82FF0E0EE0FFF1FE65B5A
:10396000FD4FA591B491EC91E92321F461E08AE047
:103970000E94EC0261E08AE00E941A038CB580612B
:103980008CBD8CB580648CBD61E08DE00E941A0313
:1039900061E08BE00E941A03809118028F5F809390
:1039A0001802FFBE82E58093BF041092C00480918C
:1039B000BF049091C0040E94E703EAE0FE2E8FEF5F
:1039C0000E94C203FA94F110FACF81EC94E00E94B5
:1039D000EA0320E030E0A90160E081EC94E00E947D
:1039E0000004F82E8093CB0421E0821709F44DC126
:1039F0000E94A203601B710B613D774050F381E090
:103A00008093C60481EC94E00E94B70382E00E9498
:103A1000331160E08EE00E941A0360E080E10E94B2
:103A20001A0360E08FE00E941A0360E081E10E94C7
:103A30001A0360E080E00E94D91187E892E00E94BA
:103A4000EE1161E080E00E94D9118CE792E00E94C3
:103A5000EE1160ED77E080E090E00E9470030E943C
:103A60001C1280911101909112010E948E1358EE48
:103A7000452E53E0552E612C712CABE5B0E0AC0F18
:103A8000BD1F1C96CE55DF4FB983A883C25AD040C4
:103A90008EE00E946B0F8823B1F180911F02882372
:103AA00091F1809113018823A1F0209111013091AF
:103AB000120121503109309312012093110180919C
:103AC000100190E08217930724F0909312018093E5
:103AD000110180911101909112018536910509F42F
:103AE00088C10CF050C18431910509F4A8C1843615
:103AF000910509F46CC180911101909112010E940D
:103B00008E1310921F0280E10E946B0F8823B1F187
:103B100080911E02882391F1809113018823A1F0E6
:103B200020911101309112012F5F3F4F309312010C
:103B3000209311018091050190E02817390724F0A6
:103B400090931201809311018091110190911201C3
:103B50008536910509F4C2C10CF08CC18431910500
:103B600009F4DFC18436910509F4A8C180911101DF
:103B7000909112010E948E1310921E028FE00E94FB
:103B80006B0F882329F180911B02882309F1809112
:103B90001101909112018F30910509F4B2C40CF01B
:103BA00006C28A30910509F490C40CF0EEC182304F
:103BB000910509F444C30CF0D3C1019709F42FC354
:103BC00080911101909112010E948E1310921B029C
:103BD00081E10E946B0F8823D9F08091190288231C
:103BE000B9F080911A02843009F4E0C508F07DC56F
:103BF000823009F4B3C508F0C8C5813009F49AC50C
:103C000080911101909112010E948E13109219025D
:103C100080E10E946B0F811107C080911E0281110B
:103C200003C081E080931E028EE00E946B0F811121
:103C300007C080911F02811103C081E080931F02A1
:103C40008FE00E946B0F811107C080911B028111D0
:103C500003C081E080931B0281E10E946B0F811100
:103C600007C080911902811103C081E0809319027D
:103C700080E090E0892B09F40BCF0E94200288237A
:103C800009F406CF0E94000003CF2AEA31E040E0A9
:103C900050E068E081EC94E00E94000482FF2AC0BA
:103CA000F092CC048091CC04C12CD12CE12C60E4A6
:103CB000F62E823019F0C12CD12C760120E030E0B4
:103CC000A90167E381EC94E00E940004A70196013A
:103CD00069E281EC94E00E9400048093CB04882385
:103CE000D1F00E94A203601B710B613D774030F35D
:103CF00088E086CE74E0F72E0E94C9038093CB043F
:103D0000FA94F110F9CF8A3A11F082E079CE82E08C
:103D10008093CC04C7CF8091CC048230D1F420E0D2
:103D200030E0A9016AE381EC94E00E94000488235A
:103D300011F086E065CE0E94C903807C803C19F4B6
:103D400083E08093CC040E94C9030E94C9030E94AF
:103D5000C90381EC94E00E94B70380E58093BF041F
:103D60001092C00481E00E941F06882329F08BEE88
:103D700094E00E94D6084ACE80E00E941F06882365
:103D800009F444CEF4CF8636910509F444C0873651
:103D9000910509F0B0CE8091080190910901853616
:103DA00091050CF44AC084569109909309018093BF
:103DB000080180910801909109010B970CF09BCEAE
:103DC0008AE090E0909309018093080194CE80915D
:103DD0000E0190910F010197181619062CF490937B
:103DE0000F0180930E0187CE10920F0110920E01E9
:103DF00082CE80910C0190910D0101971816190641
:103E00002CF490930D0180930C0175CE10920D014E
:103E100010920C0170CE80910A0190910B010197D4
:103E2000181619062CF490930B0180930A0163CEA7
:103E300010920B0110920A015ECE0A97B6CF8091C4
:103E400006019091070101978131B7E29B077CF051
:103E500090930701809306018091060190910701DC
:103E60000E94471A84E190E00E948E1344CE80E1C4
:103E700097E2EECF8636910509F440C0873691056A
:103E800009F074CE80910801909109018436910562
:103E90000CF044C00A969093090180930801809128
:103EA000080190910901803A9F400CF45FCE80EAAE
:103EB0009FE0909309018093080158CE80910E01F4
:103EC00090910F0101968C3091052CF490930F0185
:103ED00080930E014BCE8CE090E0F8CF80910C01E6
:103EE00090910D0101968C3091052CF490930D0169
:103EF00080930C013BCE8CE090E0F8CF80910A01DA
:103F000090910B0101968C3091052CF490930B014C
:103F100080930A012BCE8CE090E0F8CF8C599F4F14
:103F2000BACF809106019091070101969093070105
:103F30008093060120911C0230911D028217930785
:103F400024F030930701209306018091060190919F
:103F500007010E94471A84E190E00E948E1306CE6A
:103F60008330910509F4A3C2049709F029CE88E2B1
:103F700090E0909312018093110189E280930501F2
:103F800088E28093100184E057C18C30910509F4D8
:103F9000AEC20CF4A7C28D30910509F4ADC20E97E4
:103FA00009F00ECE84EA91E00E944815BAC281322F
:103FB000910509F468C30CF012C18E31910509F422
:103FC0005CC30CF002C1449709F0FACD60910A0578
:103FD00070910B0541E0CE0101960E944419EA8DD3
:103FE000FB8D309709F4AAC22389C256DF4F28837C
:103FF000CE59D0408489C156DF4F8883CF59D040F5
:104000009589C056DF4F9883C05AD040A689CF55B6
:10401000DF4FA883C15AD0401FAE1EAE22961FAEFE
:104020001EAE229724961FAE1EAE249768E971E05B
:10403000CE01CE960E94CC1588EC90E090931201B0
:10404000809311011092130110921A020E941C1207
:10405000CE0101960E946F0E60E0181619060CF052
:10406000EAC280E00E94D9116AE075E080E195E043
:104070000E94A80161E080E00E94D9118AED92E0DF
:104080000E94EE1160EA7FE080E090E00E94700301
:1040900081E08093040161E080E00E94D9118DEC01
:1040A00092E00E94EE11C256DF4FC880CE59D04038
:1040B000C156DF4FD880CF59D040C056DF4FE8807F
:1040C000C05AD040CF55DF4FF880C15AD040CE0102
:1040D00001960E946F0E892B09F480C28091040121
:1040E000882309F468C04AE0BE016F5F7F4FCE01AC
:1040F00081960E940216BE016F5D7F4FCE01CE9663
:104100000E945115CE0181960E948A15BE01625C03
:104110007F4F82E294E00E94A8018EAC9FAC811494
:10412000910449F024960EAD1FAD2497540101155A
:10413000110509F019C224968EAD9FAD2497029601
:10414000092E000CAA0BBB0BC81AD90AEA0AFB0AF3
:1041500061E08CE00E94D911A4E6B0E0A7019601CD
:104160000E942325C256DF4F2881CE59D040C15628
:10417000DF4F3881CF59D040C056DF4F4881C05AF9
:10418000D040CF55DF4F5881C15AD0400E941A26E7
:1041900084E690E0A0E0B0E0821B930BA40BB50B8B
:1041A000AC01BD012AE080E195E00E943B128BEC5E
:1041B00092E00E94EE1182E294E00E94F2018F36BA
:1041C000D1F781E08093040182CF8F31910509F40A
:1041D00057C2809709F0F4CC82ED91E0E5CE8436A9
:1041E000910509F456C254F48832910509F44EC27F
:1041F000899709F0E5CC81EE91E0D6CE8536910520
:1042000009F46AC28636910509F0DACC8CEF91E0A8
:104210000E944815E0910A01F0910B0142C28AE028
:1042200090E090931201809311018FE0809305013B
:104230008AE08093100181E080931A02C1CC81EA68
:1042400098E10E94FA17882321F08EEC98E10E94F1
:10425000FA1741E062EA71E0CE018A589F4F0E944E
:10426000441990E1E92E97E2F92E22E5C22E21E0D1
:10427000D22E36E7A32E31E0B32E4EE2942EC15754
:10428000DF4F08811981CF58D040D80115968C9105
:104290001597823008F4A8C01A968D919D910D90C3
:1042A000BC91A02D8F719927AA27BB27892B8A2B18
:1042B0008B2B09F099C040E250E0BE016F5F7F4F49
:1042C000C8010E94BE0A803209F08EC0898188230D
:1042D00009F48AC0853E79F38E3269F38C8583FDBB
:1042E000EACF22961FAE1EAE2297BFAEAEAE249688
:1042F0001FAE2497AE014F5F5F4FE0E080E0DA0130
:104300009D91AD019032A1F0883049F421E930E06F
:104310002C0F3D1F2E0F311DD9019C92EF5F21E91B
:1043200030E02C0F3D1F2E0F311DD9019C93EF5F04
:104330008F5F8B3021F781E990E08C0F9D1F8E0FEE
:10434000911DFC011082C157DF4F68817981CF58E0
:10435000D04021E0AE014F565F4FCE01CE960E9475
:104360005716882309F440C0BE01625C7F4FCE011E
:1043700081960E94160EAE014F565F4FBE016F5DD3
:104380007F4FCE01855A9F4F0E940F19E696EEADE2
:10439000FFADE697309709F475C08581882309F44D
:1043A00071C01AA219A21CA21BA21EA21DA2CE5548
:1043B000DF4F68817981C25AD040CE0181960E9438
:1043C000CC1509A11AA10115110521F1D8018D9172
:1043D0008D018823F9F0082E000C990B0E942428E7
:1043E000F80131978083F2CF6F961FAE1EAE6F97A4
:1043F000A3964CAE5DAE6EAE7FAEA3976D96DFAE6C
:10440000CEAE6D97E6961FAE1EAEE697A8961FAE8F
:10441000A897BCCF8DA19EA1892B41F069E971E0DD
:1044200089A19AA10E944D28892BD9F047E169E919
:1044300071E0CE0101960E944419B701CE010196A8
:104440000E948712BE016F5D7F4FCE0101960E94D0
:10445000A801CE0101960E944D15CE0101960E9441
:104460009215CE01855A9F4F0E949215F0921D021F
:10447000E0921C02BFEFEB1AFB0ACE0181960E946C
:104480008A15FDCECE018A589F4F0E9492158091C9
:104490000601909107010E94471A1092130184E1CE
:1044A00090E0909312018093110182E0C5CE8EE1DD
:1044B00090E0909312018093110181E280930501B5
:1044C0008EE18093100183E0B7CE1092130184E651
:1044D00090E09093120180931101809305018093E5
:1044E0001001AACE1092130185E690E0F2CF10924F
:1044F000130186E690E0EDCF1092130187E690E07D
:10450000E8CF63EB71E082E294E00E942C1282E239
:1045100094E00E944D156DEB71E082E294E00E9400
:104520002C1282E294E00E944D150E94081264E66B
:1045300070E080E090E00E94700342CBC256DF4FF3
:104540001882CE59D040C156DF4F1882CF59D04083
:10455000C056DF4F1882C05AD040CF55DF4F188267
:10456000C15AD04059CD51011501BFEF2B1A3B0A5A
:10457000F5018081082E000C990B0E94F323892BF2
:1045800091F701501109080D191DD8018C91082EC1
:10459000000C990B0E94F323892B31F00A151B059F
:1045A00018F001501109F1CFA8014F5F5F4F4A1970
:1045B0005B0924965FAF4EAF24978A149B0420F4C6
:1045C000B501C4010E943928EEADFFAD24968EAD31
:1045D0009FAD2497E80FF91F1082ADCD61E080E018
:1045E0000E94D9118AEB92E00E94EE1160ED77E013
:1045F00080E090E00E94700380E197E290930701D1
:104600008093060184E08093050181E0809310018E
:1046100010921A028093130181E090E090931201AE
:1046200080931101CE0101960E949215CE01CE9683
:104630000E948A15C5CA80E00E94D91189EA92E0D9
:104640000E94EE1161E080E00E94D91188E992E0B9
:104650000E94EE1160ED77E080E090E00E94700330
:1046600080E197E2909307018093060184E08093B4
:10467000050181E080931001CDCF85EC91E094CCD1
:104680008CEC91E091CC88ED91E08ECC8EED91E0B8
:104690008BCC84EE91E00E944815E0910E01F091E0
:1046A0000F01EE0FFF1FEE0FFF1FE65EFE4F408172
:1046B00051816281738182E294E00E94BD128FEE8B
:1046C00091E00E944815609108017091090182E211
:1046D00094E00E94871225CF81EF91E00E94481557
:1046E000E0910C01F0910D01DCCF853609F46BC02F
:1046F000A8F4843609F084CA81E0809313012AE08B
:1047000030E030931201209311019FE09093050156
:104710009AE09093100180931A0272CA863609F4C7
:1047200058C0873609F06CCA81E0809313012DE0F0
:1047300030E0E7CF20E137E2309307012093060114
:1047400021E030E0309312012093110194E0909326
:1047500005018093100110921A0252CA80E197E27B
:10476000909307018093060182E090E090931201FC
:104770008093110184E08093050181E08093100112
:1047800010921A02809313013BCA80E197E2909342
:1047900007018093060183E090E0909312018093DB
:1047A000110184E08093050181E0D3CF20E137E25D
:1047B000309307012093060124E030E0309312018A
:1047C00020931101EFCF81E0809313012BE030E0C3
:1047D00098CF81E0809313012CE030E092CF8AE003
:1047E00095E00C948A1591110C94CF24803219F025
:1047F00089508550C8F708950E943E2408F481E04E
:104800000895E89409C097FB3EF4909580957095C3
:1048100061957F4F8F4F9F4F9923A9F0F92F96E90C
:10482000BB279395F695879577956795B795F11181
:10483000F8CFFAF4BB0F11F460FF1BC06F5F7F4F1E
:104840008F4F9F4F16C0882311F096E911C0772330
:1048500021F09EE8872F762F05C0662371F096E839
:10486000862F70E060E02AF09A95660F771F881F08
:10487000DAF7880F9695879597F90895990F0008AC
:10488000550FAA0BE0E8FEEF16161706E807F90722
:10489000C0F012161306E407F50798F0621B730BBD
:1048A000840B950B39F40A2661F0232B242B252B3E
:1048B00021F408950A2609F4A140A6958FEF811DE1
:1048C000811D08950E9475240C94E9240E94DB2424
:1048D00038F00E94E22420F0952311F00C94D224A9
:1048E0000C94D82411240C941D250E94FA2470F3F2
:1048F000959FC1F3950F50E0551F629FF001729F85
:10490000BB27F00DB11D639FAA27F00DB11DAA1F93
:10491000649F6627B00DA11D661F829F2227B00DE0
:10492000A11D621F739FB00DA11D621F839FA00D6B
:10493000611D221F749F3327A00D611D231F849FBB
:10494000600D211D822F762F6A2F11249F57504012
:104950009AF0F1F088234AF0EE0FFF1FBB1F661F8D
:10496000771F881F91505040A9F79E3F510580F056
:104970000C94D2240C941D255F3FE4F3983ED4F3AD
:10498000869577956795B795F795E7959F5FC1F7FA
:10499000FE2B880F911D9695879597F90895992775
:1049A0008827089597F99F6780E870E060E0089590
:1049B0009FEF80EC089500240A9416161706180637
:1049C0000906089500240A94121613061406050613
:1049D0000895092E0394000C11F4882352F0BB0FA4
:1049E00040F4BF2B11F460FF04C06F5F7F4F8F4F07
:1049F0009F4F089557FD9058440F551F59F05F3F42
:104A000071F04795880F97FB991F61F09F3F79F0F0
:104A100087950895121613061406551FF2CF469572
:104A2000F1DF08C0161617061806991FF1CF8695F4
:104A30007105610508940895E894BB2766277727D8
:104A4000CB0197F908950E946525A59F900DB49F0D
:104A5000900DA49F800D911D112408952F923F92D7
:104A60004F925F926F927F928F929F92AF92BF927E
:104A7000CF92DF92EF92FF920F931F93CF93DF932A
:104A8000CDB7DEB7CA1BDB0B0FB6F894DEBF0FBE87
:104A9000CDBF09942A88398848885F846E847D84D4
:104AA0008C849B84AA84B984C884DF80EE80FD80D6
:104AB0000C811B81AA81B981CE0FD11D0FB6F8944C
:104AC000DEBF0FBECDBFED010895A29FB001B39F21
:104AD000C001A39F700D811D1124911DB29F700D07
:104AE000811D1124911D08955058BB27AA270E94AB
:104AF0008C250C94E9240E94DB2438F00E94E224E7
:104B000020F039F49F3F19F426F40C94D8240EF4C5
:104B1000E095E7FB0C94D224E92F0E94FA2458F385
:104B2000BA17620773078407950720F079F4A6F592
:104B30000C941C250EF4E0950B2EBA2FA02D0B0122
:104B4000B90190010C01CA01A0011124FF27591BD2
:104B500099F0593F50F4503E68F11A16F040A22FD8
:104B6000232F342F4427585FF3CF46953795279549
:104B7000A795F0405395C9F77EF41F16BA0B620B48
:104B8000730B840BBAF09150A1F0FF0FBB1F661F8F
:104B9000771F881FC2F70EC0BA0F621F731F841FD2
:104BA00048F4879577956795B795F7959E3F08F0F8
:104BB000B0CF9395880F08F09927EE0F97958795BA
:104BC00008950E94022588F09F5798F0B92F9927E1
:104BD000B751B0F0E1F0660F771F881F991F1AF0E8
:104BE000BA95C9F714C0B13091F00E941C25B1E00C
:104BF00008950C941C25672F782F8827B85F39F00B
:104C0000B93FCCF3869577956795B395D9F73EF480
:104C100090958095709561957F4F8F4F9F4F089528
:104C20000E943E2408F48FEF08950E943E24880BD2
:104C3000990B0895A1E21A2EAA1BBB1BFD010DC002
:104C4000AA1FBB1FEE1FFF1FA217B307E407F5073C
:104C500020F0A21BB30BE40BF50B661F771F881F18
:104C6000991F1A9469F760957095809590959B01AE
:104C7000AC01BD01CF010895EE0FFF1F0590F49127
:104C8000E02D09940F931F93CF93DF93823091050A
:104C900010F482E090E0E0912A05F0912B0530E0DD
:104CA00020E0B0E0A0E0309799F42115310509F437
:104CB0004AC0281B390B24303105D8F58A819B81E5
:104CC0006115710589F1FB0193838283FE0111C097
:104CD000408151810281138148175907E0F048173C
:104CE000590799F4109761F012960C931297139646
:104CF0001C933296CF01DF91CF911F910F910895B0
:104D000000932A0510932B05F4CF2115310551F09E
:104D10004217530738F0A901DB019A01BD01DF01F9
:104D2000F801C1CFEF01F9CF90932B0580932A05AD
:104D3000CDCFFE01E20FF31F8193919322503109F1
:104D400039832883D7CF2091280530912905232B3B
:104D500041F42091160130911701309329052093D9
:104D6000280520911401309115012115310541F4D8
:104D70002DB73EB74091180150911901241B350BF6
:104D8000E0912805F0912905E217F307A0F42E1B06
:104D90003F0B2817390778F0AC014E5F5F4F24179F
:104DA000350748F04E0F5F1F5093290540932805A3
:104DB000819391939FCFF0E0E0E09CCFCF93DF937E
:104DC0000097E9F0FC01329713821282A0912A0524
:104DD000B0912B05ED0130E020E01097A1F4208187
:104DE0003181820F931F20912805309129052817C2
:104DF000390709F061C0F0932905E0932805DF9198
:104E0000CF910895EA01CE17DF07E8F54A815B816B
:104E10009E0141155105B1F7E901FB83EA834991F0
:104E20005991C40FD51FEC17FD0761F48081918162
:104E30000296840F951FE90199838883828193816B
:104E40009B838A83F0E0E0E012968D919C9113970A
:104E50000097B9F52D913C911197CD010296820FE3
:104E6000931F20912805309129052817390739F615
:104E7000309751F510922B0510922A05B093290511
:104E8000A0932805BCCFD383C28340815181840F76
:104E9000951FC817D90761F44E5F5F4F88819981CC
:104EA000480F591F518340838A819B81938382835A
:104EB0002115310509F0B0CFF0932B05E0932A05B9
:104EC0009ECFFD01DC01C0CF13821282D7CFB0E0AC
:104ED000A0E0EDE6F7E20C9430258C01009751F448
:104EE000CB010E9442268C01C801CDB7DEB7E0E1BC
:104EF0000C944C25FC01E60FF71F9C012250310950
:104F0000E217F30708F49DC0D901CD91DC91119708
:104F1000C617D70798F0C530D10530F3CE010497F6
:104F20008617970708F3C61BD70B2297C193D19317
:104F30006D937C93CF010E94DE26D6CF5B01AC1A25
:104F4000BD0A4C018C0E9D1EA0912A05B0912B0527
:104F5000512C412CF12CE12C109731F58091280532
:104F6000909129058815990509F05CC046165706E9
:104F700008F058C08091140190911501009741F4F8
:104F80008DB79EB74091180150911901841B950B64
:104F9000E817F90708F055C0F0932905E0932805B4
:104FA000F90171836083A0CF8D919C911197129626
:104FB0006C90129713967C901397A815B90559F524
:104FC0006C0142E0C40ED11CCA14DB0420F1AC0118
:104FD0004A195B09DA011296159780F06282738292
:104FE00051834083D9016D937C93E114F10471F0F6
:104FF000D7011396FC93EE93129776CF22968C0FDF
:105000009D1FF90191838083F301EFCFF0932B056E
:10501000E0932A0569CF4816590608F42C017D0152
:10502000D3019ACFCB010E9442267C01009749F020
:10503000AE01B8010E943928C8010E94DE2687010E
:1050400053CF10E000E050CF9111089581548A5160
:1050500008F4805E855A0895FB01DC0104C08D913F
:105060000190801921F441505040C8F7881B990BDA
:105070000895FB01DC0102C001900D9241505040A7
:10508000D8F70895FC018191861721F08823D9F77C
:10509000992708953197CF010895FB01DC018D9187
:1050A000019080190110D9F3990B0895FB01DC01DF
:1050B00001900D920020E1F70895FB01DC014150C1
:1050C000504048F001900D920020C9F701C01D9298
:1050D00041505040E0F7089511E0C5E7D1E004C029
:1050E000FE010E943C262196C637D107C9F7F894E5
:0250F000FFCFF0
:1050F200FFFFFFFF01041027320006000600060032
:105102000101000100002C0580000000C8C200005F
:1051120048C2000020C10000A0C0000080BFCDCC6A
:10512200CCBD00000000CDCCCC3D0000803F000093
:10513200A04000002041000048420000C842000098
:105142000000BC0E9F0E8F0E660E6F0EE90E1D0F35
:10515200000000005602B601E301A3021402F201AC
:10516200060200000000050EB601FF0BA0010000C0
:105172000000E811B601AE03A0016E616E00696E17
:1051820066006F7666000D0A00736176652E6572A1
:105192006B002F0047313050304C3230583059308C
:1051A2005A3000473930473058305930004739308B
:1051B20047305A300024313D3235350024313D32FA
:1051C20035002433323D31002433323D300024484F
:1051D20000245800244A3D473231473931580046AD
:1051E20000244A3D4732314739315900244A3D476C
:0851F20032314739315A000047
:00000001FF
